{
  "_format": "hh-sol-artifact-1",
  "contractName": "Lottery",
  "sourceName": "contracts/Lottery.sol",
  "abi": [
    {
      "anonymous": false,
      "inputs": [
        {
          "indexed": true,
          "internalType": "address",
          "name": "user",
          "type": "address"
        },
        {
          "indexed": true,
          "internalType": "uint256",
          "name": "lotNumber",
          "type": "uint256"
        }
      ],
      "name": "YouLost",
      "type": "event"
    },
    {
      "anonymous": false,
      "inputs": [
        {
          "indexed": true,
          "internalType": "address",
          "name": "user",
          "type": "address"
        },
        {
          "indexed": true,
          "internalType": "uint256",
          "name": "lotNumber",
          "type": "uint256"
        },
        {
          "indexed": true,
          "internalType": "uint256",
          "name": "level",
          "type": "uint256"
        },
        {
          "indexed": false,
          "internalType": "uint256",
          "name": "amount",
          "type": "uint256"
        }
      ],
      "name": "YouWin",
      "type": "event"
    },
    {
      "inputs": [],
      "name": "betMinAmount",
      "outputs": [
        {
          "internalType": "uint256",
          "name": "",
          "type": "uint256"
        }
      ],
      "stateMutability": "view",
      "type": "function"
    },
    {
      "inputs": [],
      "name": "firstPrizeMaxAmount",
      "outputs": [
        {
          "internalType": "uint256",
          "name": "",
          "type": "uint256"
        }
      ],
      "stateMutability": "view",
      "type": "function"
    },
    {
      "inputs": [],
      "name": "initialize",
      "outputs": [],
      "stateMutability": "nonpayable",
      "type": "function"
    },
    {
      "inputs": [],
      "name": "jackpot",
      "outputs": [
        {
          "internalType": "uint256",
          "name": "",
          "type": "uint256"
        }
      ],
      "stateMutability": "view",
      "type": "function"
    },
    {
      "inputs": [
        {
          "internalType": "uint256",
          "name": "_placeNumber",
          "type": "uint256"
        }
      ],
      "name": "placeBet",
      "outputs": [],
      "stateMutability": "payable",
      "type": "function"
    },
    {
      "inputs": [],
      "name": "secondPrizeMaxAmount",
      "outputs": [
        {
          "internalType": "uint256",
          "name": "",
          "type": "uint256"
        }
      ],
      "stateMutability": "view",
      "type": "function"
    }
  ],
  "bytecode": "0x608060405234801561001057600080fd5b5061075e806100206000396000f3fe6080604052600436106100555760003560e01c806310fe7c481461005a57806312317402146100885780636b31ee01146100b35780638129fc1c146100de57806389f24361146100f5578063ca619f7414610120575b600080fd5b6100866004803603602081101561007057600080fd5b810190808035906020019092919050505061014b565b005b34801561009457600080fd5b5061009d610538565b6040518082815260200191505060405180910390f35b3480156100bf57600080fd5b506100c861053e565b6040518082815260200191505060405180910390f35b3480156100ea57600080fd5b506100f3610544565b005b34801561010157600080fd5b5061010a610671565b6040518082815260200191505060405180910390f35b34801561012c57600080fd5b50610135610677565b6040518082815260200191505060405180910390f35b60365434146101c2576040517f08c379a00000000000000000000000000000000000000000000000000000000081526004018080602001828103825260138152602001807f696e76616c69642062657420616d6f756e74210000000000000000000000000081525060200191505060405180910390fd5b6000811180156101d3575061271081105b610245576040517f08c379a00000000000000000000000000000000000000000000000000000000081526004018080602001828103825260158152602001807f696e76616c696420706c616365206e756d62657221000000000000000000000081525060200191505060405180910390fd5b34603760008282540192505081905550600061025f61067d565b9050808214156103325760006034546037541161027e57603754610282565b6034545b90503373ffffffffffffffffffffffffffffffffffffffff166108fc829081150290604051600060405180830381858888f193505050501580156102ca573d6000803e3d6000fd5b50806037600082825403925050819055506001823373ffffffffffffffffffffffffffffffffffffffff167fcbab09755b68cba3f1be71b21f735afc01c336f9d6ef36836d59e297d50e8453846040518082815260200191505060405180910390a450610534565b61033a6106d8565b60405180604001604052806103e8858161035057fe5b068152602001600a858161036057fe5b04815250905061036e6106d8565b60405180604001604052806103e8858161038457fe5b068152602001600a858161039457fe5b048152509050600080905060008090505b600281101561041b5781156103b95761041b565b60008090505b600281101561040d5782156103d35761040d565b8381600281106103df57fe5b60200201518583600281106103f057fe5b6020020151141561040057600192505b80806001019150506103bf565b5080806001019150506103a5565b5080156104eb576000603554603754116104375760375461043b565b6035545b90503373ffffffffffffffffffffffffffffffffffffffff166108fc829081150290604051600060405180830381858888f19350505050158015610483573d6000803e3d6000fd5b50806037600082825403925050819055506002853373ffffffffffffffffffffffffffffffffffffffff167fcbab09755b68cba3f1be71b21f735afc01c336f9d6ef36836d59e297d50e8453846040518082815260200191505060405180910390a450610530565b833373ffffffffffffffffffffffffffffffffffffffff167fa4605661c7027ab6bba7e607287ad2081780bd563e6cbaadc607a018dff9c6f560405160405180910390a35b5050505b5050565b60365481565b60375481565b600060019054906101000a900460ff168061056357506105626106c1565b5b8061057a57506000809054906101000a900460ff16155b6105cf576040517f08c379a000000000000000000000000000000000000000000000000000000000815260040180806020018281038252602e8152602001806106fb602e913960400191505060405180910390fd5b60008060019054906101000a900460ff16159050801561061f576001600060016101000a81548160ff02191690831515021790555060016000806101000a81548160ff0219169083151502179055505b681b1ae4d6e2ef500000603481905550674563918244f40000603581905550670de0b6b3a7640000603681905550801561066e5760008060016101000a81548160ff0219169083151502179055505b50565b60345481565b60355481565b6000612710424460405160200180838152602001828152602001925050506040516020818303038152906040528051906020012060001c816106bb57fe5b06905090565b6000803090506000813b9050600081149250505090565b604051806040016040528060029060208202803683378082019150509050509056fe436f6e747261637420696e7374616e63652068617320616c7265616479206265656e20696e697469616c697a6564a26469706673582212201824a4be926ad7dc5d6d9f87164b7f606fcdbf57c292558c6464024c5d25d77464736f6c63430006030033",
  "linkReferences": {},
  "deployedLinkReferences": {}
}